:020000040800F2
:10000000D860002031020008031100081110000818
:10001000011100081F0600083D1300080000000041
:10002000000000000000000000000000891100082E
:100030009106000800000000051100088B1100085F
:100040004B0200084B0200084B0200084B0200085C
:100050004B0200084B0200084B0200084B0200084C
:100060004B0200084B0200084B0200084B0200083C
:100070004B0200084B0200084B0200084B0200082C
:100080004B0200084B0200084B0200084B0200081C
:100090004B0200084B0200084B0200084B0200080C
:1000A0004B0200084B0200084B0200084B020008FC
:1000B0004B0200084B0200084B0200084B020008EC
:1000C0004B0200084B0200084B0200084B020008DC
:1000D0004B0200084B0200084B0200084B020008CC
:1000E0004B0200084B0200084B0200084B020008BC
:1000F0004B0200084B0200084B0200084B020008AC
:100100004B0200084B0200084B0200084B0200089B
:100110004B0200084B0200084B0200084B0200088B
:100120004B0200084B0200084B0200084B0200087B
:100130004B0200084B0200084B0200084B0200086B
:100140004B0200084B0200084B0200084B0200085B
:100150004B0200084B0200084B0200084B0200084B
:100160004B0200084B0200084B0200084B0200083B
:100170004B0200084B0200084B0200080000000080
:100180004B0200084B02000800F002F800F041F8B2
:100190000AA090E8000C82448344AAF10107DA45E2
:1001A00001D100F036F8AFF2090EBAE80F0013F0F3
:1001B000010F18BFFB1A43F001031847101300008A
:1001C00030130000103A24BF78C878C1FAD852071B
:1001D00024BF30C830C144BF04680C6070470000C1
:1001E0000023002400250026103A28BF78C1FBD840
:1001F000520728BF30C148BF0B607047642900F028
:10020000F780002070471FB501F03DF91FBD10B504
:1002100010BD00F0CAF91146FFF7F5FF01F004F92F
:1002200000F0E8F903B4FFF7F2FF03BC00F0F0F9C7
:100230000948804709480047FEE7FEE7FEE7FEE77A
:10024000FEE7FEE7FEE7FEE7FEE7FEE704480549B6
:10025000054A064B7047000021120008890100087A
:10026000D8000020D8600020D8200020D82000200E
:1002700053EA020C00F069802DE9F04B4FF00006C4
:10028000002B1FBFB3FA83F503FA05F424FA05F631
:100290005E4012BF1643B2FA82F502FA05F4C5F1C8
:1002A00020051EBF22FA05FC44EA0C04203556EA5C
:1002B000044C4FEA144418BF641C4FF000084FF080
:1002C0000009904271EB030C39D3002919BFB1FA30
:1002D00081F701FA07F6B0FA80F700FA07F6C7F1DE
:1002E00020071EBF20FA07FC46EA0C062037B6FBA3
:1002F000F4FCA7EB0507103F07F01F0BCBF120061E
:100300000CFA0BFB2CFA06F644BFB3460026202F4E
:10031000A4BF5E464FF0000B5BEA060C08BF4FF02F
:10032000010B19EB0B09ABFB027C48EB0608C01B69
:1003300006FB02CC0BFB03CC71EB0C01C1E70B46B7
:10034000024641464846BDE8F08B13B54FF0000029
:100350004FF00001AFF30080BDE81C407047000083
:100360000FB41CB5074B06AA7B446946009005985C
:1003700000F003F90020694600F012F91CBC5DF89A
:1003800014FB0000350200002DE9F0410E46044642
:10039000002020622046E168884730B3252805D038
:1003A000D4E901219047206A401CF2E7E168204629
:1003B00000278847050018D0A5F14100192802D868
:1003C00020354FF400673246294620462760FFF764
:1003D00015FF40B1012804D0F61D26F007060836A7
:1003E000D8E7361DD6E72846DAE7206ABDE8F0816F
:1003F0002DE9F0410646002410687529314616A5FE
:1004000010D0AFF30080002802DA404213A507E0C5
:1004100031688A0701D512A502E0490704D511A564
:10042000012401E0AFF3008000210A2206F1240735
:1004300009E0B0FBF2FCB0FBF2F302FB1C00303031
:1004400078541846491C0028F3D123462A463046E2
:10045000BDE8F04100F032B8000000002D000000BF
:100460002B000000200000004FF0000200B51346F2
:1004700094469646203922BFA0E80C50A0E80C50C4
:10048000B1F12001BFF4F7AF090728BFA0E80C5075
:1004900048BF0CC05DF804EB890028BF40F8042B6E
:1004A00008BF704748BF20F8022B11F0804F18BFDB
:1004B00000F8012B70477047704770472DE9F047EF
:1004C0000D4699469246044600F1240801688806C4
:1004D00004D5E06921F01001216000E00120A8426C
:1004E00001DD471B00E00027A1697A1902EB090032
:1004F000081AA0612078C00602D42046AFF300801D
:10050000002608E0D4E901211AF806009047206A85
:10051000401C761C20624E45F4DB2078C0060AD5CC
:100520002046AFF3008006E0D4E901213020904757
:10053000206A401C2062381EA7F10107F4DC07E0A6
:10054000D4E9012118F805009047206A401C206278
:10055000281EA5F10105F3DC2046AFF300802078CA
:10056000000602D50220BDE8F0870120FBE700006D
:1005700001694A1C02610878704700B58FB0CDE967
:1005800001310021059105497944CDE90310114657
:100590006846FFF7F9FE0FB000BD0000E5FFFFFF62
:1005A0000A6802F8010B0A607047754600F02CF8E3
:1005B000AE4605006946534620F00700854618B050
:1005C00020B5FFF743FEBDE820404FF000064FF096
:1005D00000074FF000084FF0000B21F00701AC4678
:1005E000ACE8C009ACE8C009ACE8C009ACE8C00997
:1005F0008D46704710B50446AFF300802046BDE835
:100600001040FFF70FBE0000004870477800002040
:1006100001491820ABBEFEE7260002007047FEE746
:10062000007A502802D00820404270470C20FBE797
:1006300070B516460D4604461A46314600F0EAFCEF
:1006400001482060257270BDC414000810B58AB03E
:100650000024224604A16846FFF782FE641CE4B22F
:10066000142CF6D30AB010BD436F6E74726F6C20F9
:100670004C456420446961676E6F737469632053ED
:1006800074616765203D202564200A0D000000008C
:100690007047000070B5044600F00CF90546601C78
:1006A00002D004480078044400F004F9401BA04242
:1006B000FAD370BD000000202DE9F84FDFF8BCA18F
:1006C0000022012503264FF00F090AF1040BAAF1BD
:1006D000040E00BF0B6805FA02F42340A34270D158
:1006E0000F7907F00307012F01D0022F16D1876879
:1006F0004FEA420806FA08FC27EA0C07D1F80CC0BA
:100700000CFA08FC4CEA070CC0F808C04768A7437D
:100710000C79C4F3001494403C4344600C79E443E6
:10072000A4070AD0C4684FEA420C06FA0CF7BC438F
:100730008F6807FA0CF72743C7600C7904F00304AD
:10074000022C12D1D40800EB840CDCF820405707AF
:10075000FF0E09FA07F824EA0804D1F8108008FA15
:1007600007F848EA0408CCF8208004684FEA420CF5
:1007700006FA0CF7BC430F7907F0030707FA0CF7EA
:10078000274307604C6814F4403F70D03C4C276806
:1007900047F480472760246822F0030704F480446C
:1007A0000094384C07EB040CDCF8084897074FEA34
:1007B000177809FA08F7BC43334FB84202D1002733
:1007C00024E054E0314FB84201D101271EE0304F00
:1007D000B84201D1022719E02E4FB84201D10327B8
:1007E00014E02D4FB84201D104270FE02B4FB8423F
:1007F00001D105270AE02A4FB84201D1062705E0BA
:10080000284FB84201D1072700E0082707FA08F768
:100810002743CCF80878DAF800405746D1F804C0EE
:100820009C435FEACC2C00D51C433C60DBF80040C5
:100830005F46D1F804C09C435FEA8C2C00D51C4372
:100840003C60DEF800407746D1F804C09C435FEA84
:100850008C3C00D51C433C60084F083F3C68D1F8F5
:1008600004C09C435FEACC3C00D51C433C60521C56
:10087000102AFFF42FAFBDE8F88F0000083C0140BC
:1008800044380240003001400000024000040240B1
:1008900000080240000C0240001002400014024018
:1008A00000180240001C02400AB18161704709042F
:1008B000FBE700000148806870470000000000204E
:1008C000024881680278114481607047000000206E
:1008D0000B4810B5016841F400710160016841F4F2
:1008E00080610160016841F480710160032000F0C3
:1008F00061F80F2000F006F800F024F8002010BD89
:10090000003C024070B50D4D04464FF47A712878D2
:10091000B1FBF0F00A490968B1FBF0F000F0FEFA13
:1009200048B9102C07D200222146501E00F022F8B0
:1009300000206C6070BD012070BD00000000002030
:100940000C0000200A4808B5016841F480410160AC
:10095000006800F4804000900548001F016841F0E5
:1009600080510160006800F08050009008BD0000D8
:1009700044380240F0B40E4B1B680C46C3F302230C
:10098000C3F10705042D00D90425191D072901D23B
:10099000002300E0DB1E012606FA05F1491E214076
:1009A00099409E40761E16403143F0BC00F0C7BC13
:1009B0000CED00E0064900F0070208684FF6FF035F
:1009C000184040EA0220034A1043086070470000C4
:1009D0000CED00E00000FA052DE9F0470E46050099
:1009E00065D0DFF81481D8F80000F7B200F00700F6
:1009F000B04207D288F80070D8F8000000F0070075
:100A0000B04254D128683D4C810712D5400703D528
:100A1000206840F4E05020602878000703D5206863
:100A200040F4604020602068A96820F0F00008438E
:100A300020602878C0072DD030496868083901281F
:100A400012D0022813D0032811D009688907002981
:100A50002DDA216821F0030101432160FFF72AFF0D
:100A6000814641F2883A0EE009688903EFE7096898
:100A70008901ECE7FFF71EFFA0EB0901514502D900
:100A80000320BDE8F0872068696800F00C00B0EB37
:100A9000810FEFD1D8F80010404601F00701B142B4
:100AA00007D90770006800F00700B04201D00120AC
:100AB000E7E72878400705D52068E96820F4E0508A
:100AC000084320602878000706D52068296920F4AB
:100AD000604040EAC100206000F038F82168084A10
:100AE000C1F30311515CC84006490860064800681C
:100AF000FFF708FF0020C4E7003C0240083802402E
:100B0000901400080C00002004000020044805494F
:100B100000680968044AC1F38221515CC8407047EB
:100B20000C00002008380240A014000804480549C1
:100B300000680968044AC1F34231515CC8407047FB
:100B40000C00002008380240A0140008154810B519
:100B5000006810F00C02144813D01449042A0FD076
:100B6000082A0ED10F4C241F2268236802F03F028E
:100B70005B0207D52068C0F38810A0FB010106E0E6
:100B8000084610BD2168C1F38811A1FB00010023B4
:100B9000FFF76EFB2168C1F30141491C4900B0FB1E
:100BA000F1F010BD083802400024F40040787D01C7
:100BB0002DE9F84F04006ED02078DFF84C93C00781
:100BC000A9F104054AD009F104000168C1F38101CB
:100BD000012908D00068C0F3810002280AD1D9F8A1
:100BE0000000400206D52868800337D560680028D9
:100BF000E1D033E06068B0F5803F10D0B0F5A02FB1
:100C0000286810D020F480302860286820F48020E4
:100C100028606068A8B1FFF74DFE06460DE0286821
:100C200040F48030F4E740F480202860F7E700BF0C
:100C3000FFF740FE801B642873D828688003F7D52F
:100C40000CE0FFF737FE064605E000BFFFF732FE77
:100C5000801B6428F0D828688003F7D42078DFF858
:100C6000AC8280074FF0000A3ED5A748001D0168FE
:100C700011F00C0F08D00068C0F3810002280BD1DE
:100C8000D9F80000400207D42868800716D5E0682C
:100C9000012800D112E033E1E068B8B10120C8F8C2
:100CA0000000FFF707FE064605E000BFFFF702FE63
:100CB000801B0228C0D828688007F7D528682169DA
:100CC00020F0F80040EAC10028600DE0C8F800A05C
:100CD000FFF7F0FD064604E0FFF7ECFD801B02285D
:100CE0001FD828688007F7D42078000722D5864FC0
:100CF00087486169703771B101210160FFF7DAFD42
:100D0000064604E0FFF7D6FD801B022809D83868A4
:100D10008007F7D50EE0C0F800A0FFF7CBFD064630
:100D200005E082E0FFF7C6FD801B02287DD8386809
:100D30008007F7D42078400768D5DFF8CCB10027CA
:100D40000BF13C0BDBF80000C0000BD4DBF800100B
:100D500041F08051CBF80010DBF80000012700F0D3
:100D6000805000906B4E3068C00510D4306840F45D
:100D700080703060FFF79EFD009005E0FFF79AFD60
:100D80000099401A022850D83068C005F6D55E4E4A
:100D9000A0686C3601280FD00528306810D020F0EC
:100DA00001003060306820F004003060A068B8B105
:100DB000FFF780FD00900FE0306840F00100F4E79D
:100DC00040F004003060F7E7FFF774FD0099411A26
:100DD00041F28830814266D830688007F4D50EE051
:100DE000FFF768FD009007E0FFF764FD0099411AE6
:100DF00041F28830814256D830688007F4D42FB150
:100E0000DBF8001021F08051CBF80010A069C8B3C6
:100E10003D49091D0968C1F3810102294AD0022810
:100E2000504607D0C8F8600000E03CE0FFF742FD04
:100E300004463BE04746C8F86000FFF73BFD064626
:100E400005E000BFFFF736FD801B02282BD828687D
:100E50008001F7D4D4E907010843A16A2E4A490862
:100E600002EB0141626A41EA8211084394F82C10B6
:100E700040EA0161C9F8001001203866FFF71AFD49
:100E8000044606E03EE000BFFFF714FD001B022809
:100E900009D828688001F7D534E000BFFFF70AFDC4
:100EA000001B022802D90320BDE8F88F28688001C2
:100EB000F4D427E00128F7D0D9F80000E26900F463
:100EC000800191421CD1226A00F03F01914217D16A
:100ED00047F6C071626A0140B1EB821F10D1A26A6D
:100EE0004FF0FF3300F4403103EB5202B1EB024FFD
:100EF00006D194F82C1000F07060B0EB016F01D0B7
:100F00000120D1E70020CFE704380240000047422B
:100F1000800E4742007000400000FFFF10B5401EE9
:100F2000B0F1807F01D3012010BD4FF0E02460615B
:100F30000F21601700F003FA0020A0610720206154
:100F4000002010BD70B5040004D094F83D000025C9
:100F500010B106E0012070BD84F83C50204600F03E
:100F600023F8242084F83D002068C16821F4005152
:100F7000C160204600F05CF92068016921F49041CD
:100F800001612068416921F02A0141612068C1683E
:100F900041F40051C1602564202084F83D0084F8AC
:100FA0003E00002070BD000010B586B0044614213C
:100FB0006846FFF759FA13492068884220D1124841
:100FC0000021026842F400320260006800F4003040
:100FD00005900D481038026842F001020260006876
:100FE00000F0010005900C2000900220CDE90101E5
:100FF000032003900720049069460448FFF75CFB38
:1010000006B010BD004400404038024000000240DD
:10101000FEE70000104B036001714271002919D0F6
:101020000E4801290AD002290ED0032912D1012A23
:1010300000D000224FF40041FFF736BC012A00D057
:1010400000224FF40051F7E7012A00D000224FF4AC
:101050008041F1E770470000B4140008000C024022
:10106000417101290ED0002201790C4861B101299A
:101070000DD002290ED003290FD14FF4004100BF3B
:10108000FFF712BC0122EFE74FF48051F8E74FF46D
:101090000051F5E74FF48041F2E77047000C024041
:1010A00070B586B014216846FFF7DEF912480024B7
:1010B000016841F001010160016801F00101059141
:1010C000016841F00801016000680C4E00F0080062
:1010D0004FF470450590224629463046FFF7E4FB61
:1010E00001200095CDE90104694630460394FFF7DD
:1010F000E3FA06B070BD000030380240000C024038
:10110000FEE7FEE77047007A642802D008204042DC
:1011100070470C20FBE7817A007A11FB00F0C0B227
:10112000704700002DE9F0411D46DDE906670446E1
:10113000FFF770FF0348206025726672A772BDE852
:10114000F0810000BC14000810B58AB000242246CB
:1011500004A16846FFF704F9641CE4B2142CF6D32A
:101160000AB010BD506F776572204C6564204469E9
:1011700061676E6F73746963205374616765203DA6
:10118000202564200A0D00007047FFF799BB00007E
:1011900030B593B030216846FFF766F914210CA8EA
:1011A000FFF762F91C480024016841F0805101609A
:1011B000006800F0805011901848016841F48041A7
:1011C00001600068022500F4804011900120039026
:1011D00010200490009506950820CDE90740542082
:1011E000CDE9090504200B906846FFF7E1FC08B142
:1011F00072B6FEE70F20CDE90C054FF48050CDE923
:101200000E4002210CA81094FFF7E6FB002801D045
:1012100072B6FEE713B030BD4038024000700040A7
:101220000248016841F470010160704788ED00E0F8
:1012300070B5044600680169E26821F44051114329
:1012400001612169A068E2690843616911430843AB
:101250002168CA6849F20C639A430243CA60206855
:101260004169A26921F4407111434161314920680B
:10127000884202D03049884202D1FFF757FC01E092
:10128000FFF744FCE2690023192164253226B2F5F8
:10129000004F626828D0A0FB0101930F9200FEF777
:1012A000E7FF0146B0FBF5F06FF01802504301EB89
:1012B000800006EB0010B0FBF5F000F0F002B1FB8F
:1012C000F5F002EB0012B1FBF5F06FF01803584394
:1012D00001EB800006EB0010B0FBF5F000F00F0012
:1012E00021681044886070BDA0FB010192185B4129
:1012F000FEF7BEFF0146B0FBF5F00201B1FBF5F0D1
:101300006FF01803584301EB800006EBC000B0FB00
:10131000F5F000F0F80002EB4002B1FBF5F05843A5
:1013200001EB800006EBC000B0FBF5F000F0070019
:10133000D6E700000010014000140140FEE7090755
:10134000090E002804DB00F1E02080F8001470474B
:1013500000F00F0000F1E02080F8141D704700003D
:10136000002286B011462548FFF754FE0520009064
:1013700001901923002201212148FFF7D3FE2048C4
:10138000FFF7C9FE1D490023091F032208701C48EE
:1013900050210C30FFF74CF91A4A02AB4FF47A7423
:1013A00007CA83E8070000211448FFF759FE00210F
:1013B0001348FFF755FE1248FFF7A5FE10480C3002
:1013C000FFF72EF902A800F04FF802A800F01CF871
:1013D0002046FFF75FF901210848FFF741FE012190
:1013E0000748FFF73DFE0648FFF7AEFE04480C3005
:1013F000FFF72CF92046FFF74DF9D4E71400002041
:1014000060000020A814000870B50546002404E020
:10141000016849688847641CE4B255F82400002834
:10142000F6D170BD00207047FFF752FAFFF7B0FE0B
:10143000FFF736FE0B480A490C2201604FF4E131F8
:10144000416000218160C160C0E904128161C16115
:10145000FFF778FD08B172B6FEE7FFF781FFFEE700
:10146000004400401C00002070B50546002404E044
:10147000016809688847641CE4B255F82400002814
:10148000F6D170BD70474FF04070E1EE100A704722
:101490000000000000000000010203040607080924
:1014A000000000000102030414000020600000207E
:1014B0006C0000208514000825140008491100085C
:1014C000071100084D06000821060008EC1400086A
:1014D000000000201C000000C401000808150008DE
:1014E0001C000020BC600000E001000801000000BA
:1014F00010000000000000000024F40000000000C4
:081500000000000000000000E3
:040000050800018965
:00000001FF
